{
  "_format": "hh-sol-artifact-1",
  "contractName": "PaymentGateway",
  "sourceName": "contracts/PaymentGateway.sol",
  "abi": [
    {
      "inputs": [
        {
          "internalType": "address",
          "name": "_monToken",
          "type": "address"
        }
      ],
      "stateMutability": "nonpayable",
      "type": "constructor"
    },
    {
      "inputs": [
        {
          "internalType": "address",
          "name": "owner",
          "type": "address"
        }
      ],
      "name": "OwnableInvalidOwner",
      "type": "error"
    },
    {
      "inputs": [
        {
          "internalType": "address",
          "name": "account",
          "type": "address"
        }
      ],
      "name": "OwnableUnauthorizedAccount",
      "type": "error"
    },
    {
      "inputs": [],
      "name": "ReentrancyGuardReentrantCall",
      "type": "error"
    },
    {
      "anonymous": false,
      "inputs": [
        {
          "indexed": true,
          "internalType": "address",
          "name": "merchant",
          "type": "address"
        }
      ],
      "name": "MerchantAdded",
      "type": "event"
    },
    {
      "anonymous": false,
      "inputs": [
        {
          "indexed": true,
          "internalType": "address",
          "name": "merchant",
          "type": "address"
        }
      ],
      "name": "MerchantRemoved",
      "type": "event"
    },
    {
      "anonymous": false,
      "inputs": [
        {
          "indexed": true,
          "internalType": "address",
          "name": "previousOwner",
          "type": "address"
        },
        {
          "indexed": true,
          "internalType": "address",
          "name": "newOwner",
          "type": "address"
        }
      ],
      "name": "OwnershipTransferred",
      "type": "event"
    },
    {
      "anonymous": false,
      "inputs": [
        {
          "indexed": true,
          "internalType": "uint256",
          "name": "linkId",
          "type": "uint256"
        },
        {
          "indexed": true,
          "internalType": "address",
          "name": "merchant",
          "type": "address"
        },
        {
          "indexed": false,
          "internalType": "uint256",
          "name": "amount",
          "type": "uint256"
        },
        {
          "indexed": false,
          "internalType": "string",
          "name": "description",
          "type": "string"
        }
      ],
      "name": "PaymentLinkCreated",
      "type": "event"
    },
    {
      "anonymous": false,
      "inputs": [
        {
          "indexed": true,
          "internalType": "uint256",
          "name": "linkId",
          "type": "uint256"
        },
        {
          "indexed": true,
          "internalType": "address",
          "name": "payer",
          "type": "address"
        },
        {
          "indexed": false,
          "internalType": "uint256",
          "name": "amount",
          "type": "uint256"
        }
      ],
      "name": "PaymentProcessed",
      "type": "event"
    },
    {
      "anonymous": false,
      "inputs": [
        {
          "indexed": true,
          "internalType": "address",
          "name": "subscriber",
          "type": "address"
        },
        {
          "indexed": true,
          "internalType": "uint256",
          "name": "planId",
          "type": "uint256"
        },
        {
          "indexed": false,
          "internalType": "uint256",
          "name": "subscriptionId",
          "type": "uint256"
        }
      ],
      "name": "Subscribed",
      "type": "event"
    },
    {
      "anonymous": false,
      "inputs": [
        {
          "indexed": true,
          "internalType": "uint256",
          "name": "subscriptionId",
          "type": "uint256"
        },
        {
          "indexed": true,
          "internalType": "address",
          "name": "subscriber",
          "type": "address"
        }
      ],
      "name": "SubscriptionCancelled",
      "type": "event"
    },
    {
      "anonymous": false,
      "inputs": [
        {
          "indexed": true,
          "internalType": "uint256",
          "name": "subscriptionId",
          "type": "uint256"
        },
        {
          "indexed": true,
          "internalType": "address",
          "name": "subscriber",
          "type": "address"
        },
        {
          "indexed": false,
          "internalType": "uint256",
          "name": "amount",
          "type": "uint256"
        }
      ],
      "name": "SubscriptionPaymentProcessed",
      "type": "event"
    },
    {
      "anonymous": false,
      "inputs": [
        {
          "indexed": true,
          "internalType": "uint256",
          "name": "planId",
          "type": "uint256"
        },
        {
          "indexed": true,
          "internalType": "address",
          "name": "merchant",
          "type": "address"
        },
        {
          "indexed": false,
          "internalType": "uint256",
          "name": "amount",
          "type": "uint256"
        },
        {
          "indexed": false,
          "internalType": "uint32",
          "name": "interval",
          "type": "uint32"
        },
        {
          "indexed": false,
          "internalType": "string",
          "name": "name",
          "type": "string"
        }
      ],
      "name": "SubscriptionPlanCreated",
      "type": "event"
    },
    {
      "inputs": [
        {
          "internalType": "address",
          "name": "merchant",
          "type": "address"
        }
      ],
      "name": "addMerchant",
      "outputs": [],
      "stateMutability": "nonpayable",
      "type": "function"
    },
    {
      "inputs": [
        {
          "internalType": "address",
          "name": "",
          "type": "address"
        }
      ],
      "name": "authorizedMerchants",
      "outputs": [
        {
          "internalType": "bool",
          "name": "",
          "type": "bool"
        }
      ],
      "stateMutability": "view",
      "type": "function"
    },
    {
      "inputs": [
        {
          "internalType": "uint256",
          "name": "subscriptionId",
          "type": "uint256"
        }
      ],
      "name": "cancelSubscription",
      "outputs": [],
      "stateMutability": "nonpayable",
      "type": "function"
    },
    {
      "inputs": [
        {
          "internalType": "uint256",
          "name": "amount",
          "type": "uint256"
        },
        {
          "internalType": "string",
          "name": "description",
          "type": "string"
        }
      ],
      "name": "createPaymentLink",
      "outputs": [],
      "stateMutability": "nonpayable",
      "type": "function"
    },
    {
      "inputs": [
        {
          "internalType": "uint256",
          "name": "amount",
          "type": "uint256"
        },
        {
          "internalType": "uint32",
          "name": "interval",
          "type": "uint32"
        },
        {
          "internalType": "string",
          "name": "name",
          "type": "string"
        }
      ],
      "name": "createSubscriptionPlan",
      "outputs": [],
      "stateMutability": "nonpayable",
      "type": "function"
    },
    {
      "inputs": [
        {
          "internalType": "uint256",
          "name": "linkId",
          "type": "uint256"
        }
      ],
      "name": "deactivatePaymentLink",
      "outputs": [],
      "stateMutability": "nonpayable",
      "type": "function"
    },
    {
      "inputs": [
        {
          "internalType": "uint256",
          "name": "planId",
          "type": "uint256"
        }
      ],
      "name": "deactivateSubscriptionPlan",
      "outputs": [],
      "stateMutability": "nonpayable",
      "type": "function"
    },
    {
      "inputs": [],
      "name": "monToken",
      "outputs": [
        {
          "internalType": "contract IERC20",
          "name": "",
          "type": "address"
        }
      ],
      "stateMutability": "view",
      "type": "function"
    },
    {
      "inputs": [],
      "name": "owner",
      "outputs": [
        {
          "internalType": "address",
          "name": "",
          "type": "address"
        }
      ],
      "stateMutability": "view",
      "type": "function"
    },
    {
      "inputs": [],
      "name": "paymentLinkCounter",
      "outputs": [
        {
          "internalType": "uint256",
          "name": "",
          "type": "uint256"
        }
      ],
      "stateMutability": "view",
      "type": "function"
    },
    {
      "inputs": [
        {
          "internalType": "uint256",
          "name": "",
          "type": "uint256"
        }
      ],
      "name": "paymentLinks",
      "outputs": [
        {
          "internalType": "address",
          "name": "merchant",
          "type": "address"
        },
        {
          "internalType": "uint256",
          "name": "amount",
          "type": "uint256"
        },
        {
          "internalType": "bool",
          "name": "active",
          "type": "bool"
        },
        {
          "internalType": "string",
          "name": "description",
          "type": "string"
        }
      ],
      "stateMutability": "view",
      "type": "function"
    },
    {
      "inputs": [
        {
          "internalType": "uint256",
          "name": "linkId",
          "type": "uint256"
        }
      ],
      "name": "processPayment",
      "outputs": [],
      "stateMutability": "nonpayable",
      "type": "function"
    },
    {
      "inputs": [
        {
          "internalType": "uint256",
          "name": "subscriptionId",
          "type": "uint256"
        },
        {
          "internalType": "address",
          "name": "subscriber",
          "type": "address"
        }
      ],
      "name": "processSubscriptionPayment",
      "outputs": [],
      "stateMutability": "nonpayable",
      "type": "function"
    },
    {
      "inputs": [
        {
          "internalType": "address",
          "name": "merchant",
          "type": "address"
        }
      ],
      "name": "removeMerchant",
      "outputs": [],
      "stateMutability": "nonpayable",
      "type": "function"
    },
    {
      "inputs": [],
      "name": "renounceOwnership",
      "outputs": [],
      "stateMutability": "nonpayable",
      "type": "function"
    },
    {
      "inputs": [
        {
          "internalType": "uint256",
          "name": "planId",
          "type": "uint256"
        }
      ],
      "name": "subscribe",
      "outputs": [],
      "stateMutability": "nonpayable",
      "type": "function"
    },
    {
      "inputs": [],
      "name": "subscriptionCounter",
      "outputs": [
        {
          "internalType": "uint256",
          "name": "",
          "type": "uint256"
        }
      ],
      "stateMutability": "view",
      "type": "function"
    },
    {
      "inputs": [],
      "name": "subscriptionPlanCounter",
      "outputs": [
        {
          "internalType": "uint256",
          "name": "",
          "type": "uint256"
        }
      ],
      "stateMutability": "view",
      "type": "function"
    },
    {
      "inputs": [
        {
          "internalType": "uint256",
          "name": "",
          "type": "uint256"
        }
      ],
      "name": "subscriptionPlans",
      "outputs": [
        {
          "internalType": "address",
          "name": "merchant",
          "type": "address"
        },
        {
          "internalType": "uint256",
          "name": "amount",
          "type": "uint256"
        },
        {
          "internalType": "uint32",
          "name": "interval",
          "type": "uint32"
        },
        {
          "internalType": "bool",
          "name": "active",
          "type": "bool"
        },
        {
          "internalType": "string",
          "name": "name",
          "type": "string"
        }
      ],
      "stateMutability": "view",
      "type": "function"
    },
    {
      "inputs": [
        {
          "internalType": "address",
          "name": "",
          "type": "address"
        },
        {
          "internalType": "uint256",
          "name": "",
          "type": "uint256"
        }
      ],
      "name": "subscriptions",
      "outputs": [
        {
          "internalType": "address",
          "name": "subscriber",
          "type": "address"
        },
        {
          "internalType": "uint256",
          "name": "planId",
          "type": "uint256"
        },
        {
          "internalType": "uint256",
          "name": "startTime",
          "type": "uint256"
        },
        {
          "internalType": "uint256",
          "name": "lastPayment",
          "type": "uint256"
        },
        {
          "internalType": "bool",
          "name": "active",
          "type": "bool"
        }
      ],
      "stateMutability": "view",
      "type": "function"
    },
    {
      "inputs": [
        {
          "internalType": "address",
          "name": "newOwner",
          "type": "address"
        }
      ],
      "name": "transferOwnership",
      "outputs": [],
      "stateMutability": "nonpayable",
      "type": "function"
    }
  ],
  "bytecode": "0x608060405234801561001057600080fd5b506040516132533803806132538339818101604052810190610032919061022a565b33600073ffffffffffffffffffffffffffffffffffffffff168173ffffffffffffffffffffffffffffffffffffffff16036100a55760006040517f1e4fbdf700000000000000000000000000000000000000000000000000000000815260040161009c9190610266565b60405180910390fd5b6100b48161010360201b60201c565b506001808190555080600260006101000a81548173ffffffffffffffffffffffffffffffffffffffff021916908373ffffffffffffffffffffffffffffffffffffffff16021790555050610281565b60008060009054906101000a900473ffffffffffffffffffffffffffffffffffffffff169050816000806101000a81548173ffffffffffffffffffffffffffffffffffffffff021916908373ffffffffffffffffffffffffffffffffffffffff1602179055508173ffffffffffffffffffffffffffffffffffffffff168173ffffffffffffffffffffffffffffffffffffffff167f8be0079c531659141344cd1fd0a4f28419497f9722a3daafe3b4186f6b6457e060405160405180910390a35050565b600080fd5b600073ffffffffffffffffffffffffffffffffffffffff82169050919050565b60006101f7826101cc565b9050919050565b610207816101ec565b811461021257600080fd5b50565b600081519050610224816101fe565b92915050565b6000602082840312156102405761023f6101c7565b5b600061024e84828501610215565b91505092915050565b610260816101ec565b82525050565b600060208201905061027b6000830184610257565b92915050565b612fc3806102906000396000f3fe608060405234801561001057600080fd5b50600436106101375760003560e01c8063715018a6116100b8578063bf76c0ef1161007c578063bf76c0ef1461031d578063c931a0b814610339578063ca2efd3814610355578063e4912dac14610385578063e5ec45be146103a3578063f2fde38b146103bf57610137565b8063715018a6146102865780638da5cb5b14610290578063903a8298146102ae5780639ae703a5146102cc5780639f618967146102ea57610137565b806330412495116100ff57806330412495146101e05780633a2f8485146101fc57806345d7998614610218578063623da3d11461023457806363eb9f901461026857610137565b80630f574ba71461013c57806312852c8214610158578063133adab6146101745780632123508314610190578063284c7f35146101ac575b600080fd5b61015660048036038101906101519190611dba565b6103db565b005b610172600480360381019061016d9190611dba565b610738565b005b61018e60048036038101906101899190611e45565b610853565b005b6101aa60048036038101906101a59190611dba565b610985565b005b6101c660048036038101906101c19190611dba565b610b85565b6040516101d7959493929190611f5a565b60405180910390f35b6101fa60048036038101906101f59190611fb4565b610c80565b005b61021660048036038101906102119190611dba565b610f78565b005b610232600480360381019061022d9190611dba565b611150565b005b61024e60048036038101906102499190611ff4565b61126b565b60405161025f959493929190612034565b60405180910390f35b6102706112db565b60405161027d91906120e6565b60405180910390f35b61028e611301565b005b610298611315565b6040516102a59190612101565b60405180910390f35b6102b661133e565b6040516102c3919061211c565b60405180910390f35b6102d4611344565b6040516102e1919061211c565b60405180910390f35b61030460048036038101906102ff9190611dba565b61134a565b6040516103149493929190612137565b60405180910390f35b61033760048036038101906103329190611e45565b61142f565b005b610353600480360381019061034e91906121e8565b6115d1565b005b61036f600480360381019061036a9190611e45565b61183f565b60405161037c9190612248565b60405180910390f35b61038d61185f565b60405161039a919061211c565b60405180910390f35b6103bd60048036038101906103b8919061228f565b611865565b005b6103d960048036038101906103d49190611e45565b611b52565b005b6103e3611bd8565b60006005600083815260200190815260200160002090508060020160049054906101000a900460ff1661044b576040517f08c379a000000000000000000000000000000000000000000000000000000000815260040161044290612375565b60405180910390fd5b6009600081548092919061045e906123c4565b91905055506040518060a001604052803373ffffffffffffffffffffffffffffffffffffffff16815260200183815260200142815260200142815260200160011515815250600660003373ffffffffffffffffffffffffffffffffffffffff1673ffffffffffffffffffffffffffffffffffffffff1681526020019081526020016000206000600954815260200190815260200160002060008201518160000160006101000a81548173ffffffffffffffffffffffffffffffffffffffff021916908373ffffffffffffffffffffffffffffffffffffffff16021790555060208201518160010155604082015181600201556060820151816003015560808201518160040160006101000a81548160ff021916908315150217905550905050600260009054906101000a900473ffffffffffffffffffffffffffffffffffffffff1673ffffffffffffffffffffffffffffffffffffffff166323b872dd338360000160009054906101000a900473ffffffffffffffffffffffffffffffffffffffff1684600101546040518463ffffffff1660e01b81526004016106049392919061240c565b6020604051808303816000875af1158015610623573d6000803e3d6000fd5b505050506040513d601f19601f82011682018060405250810190610647919061246f565b610686576040517f08c379a000000000000000000000000000000000000000000000000000000000815260040161067d906124e8565b60405180910390fd5b813373ffffffffffffffffffffffffffffffffffffffff167ff94991dcbea6e8ac439cbc93bd9c62a4d39f04e0ad656df9a703f13552c2787f6009546040516106cf919061211c565b60405180910390a33373ffffffffffffffffffffffffffffffffffffffff166009547f22ac93ed91a78942270a2db46c72b014b01de879088d23d66e33fef3755016218360010154604051610724919061211c565b60405180910390a350610735611c1e565b50565b60006004600083815260200190815260200160002090503373ffffffffffffffffffffffffffffffffffffffff168160000160009054906101000a900473ffffffffffffffffffffffffffffffffffffffff1673ffffffffffffffffffffffffffffffffffffffff16146107e1576040517f08c379a00000000000000000000000000000000000000000000000000000000081526004016107d890612554565b60405180910390fd5b8060020160009054906101000a900460ff16610832576040517f08c379a0000000000000000000000000000000000000000000000000000000008152600401610829906125c0565b60405180910390fd5b60008160020160006101000a81548160ff0219169083151502179055505050565b61085b611c27565b600360008273ffffffffffffffffffffffffffffffffffffffff1673ffffffffffffffffffffffffffffffffffffffff16815260200190815260200160002060009054906101000a900460ff166108e7576040517f08c379a00000000000000000000000000000000000000000000000000000000081526004016108de9061262c565b60405180910390fd5b6000600360008373ffffffffffffffffffffffffffffffffffffffff1673ffffffffffffffffffffffffffffffffffffffff16815260200190815260200160002060006101000a81548160ff0219169083151502179055508073ffffffffffffffffffffffffffffffffffffffff167fae4bdf5adabafca6721399496d24fe50fb6564effcb386fbae92de33540763bc60405160405180910390a250565b61098d611bd8565b6000600660003373ffffffffffffffffffffffffffffffffffffffff1673ffffffffffffffffffffffffffffffffffffffff168152602001908152602001600020600083815260200190815260200160002090508060040160009054906101000a900460ff16610a32576040517f08c379a0000000000000000000000000000000000000000000000000000000008152600401610a29906126be565b60405180910390fd5b3373ffffffffffffffffffffffffffffffffffffffff168160000160009054906101000a900473ffffffffffffffffffffffffffffffffffffffff1673ffffffffffffffffffffffffffffffffffffffff161480610ad95750600360003373ffffffffffffffffffffffffffffffffffffffff1673ffffffffffffffffffffffffffffffffffffffff16815260200190815260200160002060009054906101000a900460ff165b610b18576040517f08c379a0000000000000000000000000000000000000000000000000000000008152600401610b0f9061272a565b60405180910390fd5b60008160040160006101000a81548160ff0219169083151502179055503373ffffffffffffffffffffffffffffffffffffffff16827f533734a768f070673b823079652464b7e002bb51cdf15e3108209f397425225f60405160405180910390a350610b82611c1e565b50565b60056020528060005260406000206000915090508060000160009054906101000a900473ffffffffffffffffffffffffffffffffffffffff16908060010154908060020160009054906101000a900463ffffffff16908060020160049054906101000a900460ff1690806003018054610bfd90612779565b80601f0160208091040260200160405190810160405280929190818152602001828054610c2990612779565b8015610c765780601f10610c4b57610100808354040283529160200191610c76565b820191906000526020600020905b815481529060010190602001808311610c5957829003601f168201915b5050505050905085565b610c88611bd8565b6000600660008373ffffffffffffffffffffffffffffffffffffffff1673ffffffffffffffffffffffffffffffffffffffff168152602001908152602001600020600084815260200190815260200160002090508060040160009054906101000a900460ff16610d2d576040517f08c379a0000000000000000000000000000000000000000000000000000000008152600401610d24906126be565b60405180910390fd5b6000600560008360010154815260200190815260200160002090508060020160049054906101000a900460ff16610d99576040517f08c379a0000000000000000000000000000000000000000000000000000000008152600401610d90906127f6565b60405180910390fd5b8060020160009054906101000a900463ffffffff1663ffffffff168260030154610dc39190612816565b421015610e05576040517f08c379a0000000000000000000000000000000000000000000000000000000008152600401610dfc90612896565b60405180910390fd5b600260009054906101000a900473ffffffffffffffffffffffffffffffffffffffff1673ffffffffffffffffffffffffffffffffffffffff166323b872dd848360000160009054906101000a900473ffffffffffffffffffffffffffffffffffffffff1684600101546040518463ffffffff1660e01b8152600401610e8c9392919061240c565b6020604051808303816000875af1158015610eab573d6000803e3d6000fd5b505050506040513d601f19601f82011682018060405250810190610ecf919061246f565b610f0e576040517f08c379a0000000000000000000000000000000000000000000000000000000008152600401610f0590612902565b60405180910390fd5b4282600301819055508273ffffffffffffffffffffffffffffffffffffffff16847f22ac93ed91a78942270a2db46c72b014b01de879088d23d66e33fef3755016218360010154604051610f62919061211c565b60405180910390a35050610f74611c1e565b5050565b610f80611bd8565b60006004600083815260200190815260200160002090508060020160009054906101000a900460ff16610fe8576040517f08c379a0000000000000000000000000000000000000000000000000000000008152600401610fdf90612994565b60405180910390fd5b600260009054906101000a900473ffffffffffffffffffffffffffffffffffffffff1673ffffffffffffffffffffffffffffffffffffffff166323b872dd338360000160009054906101000a900473ffffffffffffffffffffffffffffffffffffffff1684600101546040518463ffffffff1660e01b815260040161106f9392919061240c565b6020604051808303816000875af115801561108e573d6000803e3d6000fd5b505050506040513d601f19601f820116820180604052508101906110b2919061246f565b6110f1576040517f08c379a00000000000000000000000000000000000000000000000000000000081526004016110e890612902565b60405180910390fd5b3373ffffffffffffffffffffffffffffffffffffffff16827f354a7e09d58acfc69c01f51ad9c6b43c46501b660e7790d744ee8421936e3d3b836001015460405161113c919061211c565b60405180910390a35061114d611c1e565b50565b60006005600083815260200190815260200160002090503373ffffffffffffffffffffffffffffffffffffffff168160000160009054906101000a900473ffffffffffffffffffffffffffffffffffffffff1673ffffffffffffffffffffffffffffffffffffffff16146111f9576040517f08c379a00000000000000000000000000000000000000000000000000000000081526004016111f090612554565b60405180910390fd5b8060020160049054906101000a900460ff1661124a576040517f08c379a000000000000000000000000000000000000000000000000000000000815260040161124190612a00565b60405180910390fd5b60008160020160046101000a81548160ff0219169083151502179055505050565b6006602052816000526040600020602052806000526040600020600091509150508060000160009054906101000a900473ffffffffffffffffffffffffffffffffffffffff16908060010154908060020154908060030154908060040160009054906101000a900460ff16905085565b600260009054906101000a900473ffffffffffffffffffffffffffffffffffffffff1681565b611309611c27565b6113136000611cae565b565b60008060009054906101000a900473ffffffffffffffffffffffffffffffffffffffff16905090565b60095481565b60085481565b60046020528060005260406000206000915090508060000160009054906101000a900473ffffffffffffffffffffffffffffffffffffffff16908060010154908060020160009054906101000a900460ff16908060030180546113ac90612779565b80601f01602080910402602001604051908101604052809291908181526020018280546113d890612779565b80156114255780601f106113fa57610100808354040283529160200191611425565b820191906000526020600020905b81548152906001019060200180831161140857829003601f168201915b5050505050905084565b611437611c27565b600073ffffffffffffffffffffffffffffffffffffffff168173ffffffffffffffffffffffffffffffffffffffff16036114a6576040517f08c379a000000000000000000000000000000000000000000000000000000000815260040161149d90612a6c565b60405180910390fd5b600360008273ffffffffffffffffffffffffffffffffffffffff1673ffffffffffffffffffffffffffffffffffffffff16815260200190815260200160002060009054906101000a900460ff1615611533576040517f08c379a000000000000000000000000000000000000000000000000000000000815260040161152a90612ad8565b60405180910390fd5b6001600360008373ffffffffffffffffffffffffffffffffffffffff1673ffffffffffffffffffffffffffffffffffffffff16815260200190815260200160002060006101000a81548160ff0219169083151502179055508073ffffffffffffffffffffffffffffffffffffffff167fc197da77b28f3c45c06c05226a579905fd0692f6603bd04fa0ed262f79e9195860405160405180910390a250565b6115d9611bd8565b600360003373ffffffffffffffffffffffffffffffffffffffff1673ffffffffffffffffffffffffffffffffffffffff16815260200190815260200160002060009054906101000a900460ff16611665576040517f08c379a000000000000000000000000000000000000000000000000000000000815260040161165c90612b44565b60405180910390fd5b600083116116a8576040517f08c379a000000000000000000000000000000000000000000000000000000000815260040161169f90612bb0565b60405180910390fd5b600760008154809291906116bb906123c4565b919050555060405180608001604052803373ffffffffffffffffffffffffffffffffffffffff16815260200184815260200160011515815260200183838080601f016020809104026020016040519081016040528093929190818152602001838380828437600081840152601f19601f8201169050808301925050505050505081525060046000600754815260200190815260200160002060008201518160000160006101000a81548173ffffffffffffffffffffffffffffffffffffffff021916908373ffffffffffffffffffffffffffffffffffffffff1602179055506020820151816001015560408201518160020160006101000a81548160ff02191690831515021790555060608201518160030190816117d99190612da1565b509050503373ffffffffffffffffffffffffffffffffffffffff166007547fef1f3d539c104c6347010f10ce2d8b167addb679bf025142b931a7ed96f6940585858560405161182a93929190612eaf565b60405180910390a361183a611c1e565b505050565b60036020528060005260406000206000915054906101000a900460ff1681565b60075481565b61186d611bd8565b600360003373ffffffffffffffffffffffffffffffffffffffff1673ffffffffffffffffffffffffffffffffffffffff16815260200190815260200160002060009054906101000a900460ff166118f9576040517f08c379a00000000000000000000000000000000000000000000000000000000081526004016118f090612b44565b60405180910390fd5b6000841161193c576040517f08c379a000000000000000000000000000000000000000000000000000000000815260040161193390612bb0565b60405180910390fd5b60008363ffffffff1611611985576040517f08c379a000000000000000000000000000000000000000000000000000000000815260040161197c90612f2d565b60405180910390fd5b60086000815480929190611998906123c4565b91905055506040518060a001604052803373ffffffffffffffffffffffffffffffffffffffff1681526020018581526020018463ffffffff16815260200160011515815260200183838080601f016020809104026020016040519081016040528093929190818152602001838380828437600081840152601f19601f8201169050808301925050505050505081525060056000600854815260200190815260200160002060008201518160000160006101000a81548173ffffffffffffffffffffffffffffffffffffffff021916908373ffffffffffffffffffffffffffffffffffffffff1602179055506020820151816001015560408201518160020160006101000a81548163ffffffff021916908363ffffffff16021790555060608201518160020160046101000a81548160ff0219169083151502179055506080820151816003019081611ae99190612da1565b509050503373ffffffffffffffffffffffffffffffffffffffff166008547f7b8c3aae81a25a0e096ba8023726e8ccb1851f828ba0c148c19ac22990ff990f86868686604051611b3c9493929190612f4d565b60405180910390a3611b4c611c1e565b50505050565b611b5a611c27565b600073ffffffffffffffffffffffffffffffffffffffff168173ffffffffffffffffffffffffffffffffffffffff1603611bcc5760006040517f1e4fbdf7000000000000000000000000000000000000000000000000000000008152600401611bc39190612101565b60405180910390fd5b611bd581611cae565b50565b600260015403611c14576040517f3ee5aeb500000000000000000000000000000000000000000000000000000000815260040160405180910390fd5b6002600181905550565b60018081905550565b611c2f611d72565b73ffffffffffffffffffffffffffffffffffffffff16611c4d611315565b73ffffffffffffffffffffffffffffffffffffffff1614611cac57611c70611d72565b6040517f118cdaa7000000000000000000000000000000000000000000000000000000008152600401611ca39190612101565b60405180910390fd5b565b60008060009054906101000a900473ffffffffffffffffffffffffffffffffffffffff169050816000806101000a81548173ffffffffffffffffffffffffffffffffffffffff021916908373ffffffffffffffffffffffffffffffffffffffff1602179055508173ffffffffffffffffffffffffffffffffffffffff168173ffffffffffffffffffffffffffffffffffffffff167f8be0079c531659141344cd1fd0a4f28419497f9722a3daafe3b4186f6b6457e060405160405180910390a35050565b600033905090565b600080fd5b600080fd5b6000819050919050565b611d9781611d84565b8114611da257600080fd5b50565b600081359050611db481611d8e565b92915050565b600060208284031215611dd057611dcf611d7a565b5b6000611dde84828501611da5565b91505092915050565b600073ffffffffffffffffffffffffffffffffffffffff82169050919050565b6000611e1282611de7565b9050919050565b611e2281611e07565b8114611e2d57600080fd5b50565b600081359050611e3f81611e19565b92915050565b600060208284031215611e5b57611e5a611d7a565b5b6000611e6984828501611e30565b91505092915050565b611e7b81611e07565b82525050565b611e8a81611d84565b82525050565b600063ffffffff82169050919050565b611ea981611e90565b82525050565b60008115159050919050565b611ec481611eaf565b82525050565b600081519050919050565b600082825260208201905092915050565b60005b83811015611f04578082015181840152602081019050611ee9565b60008484015250505050565b6000601f19601f8301169050919050565b6000611f2c82611eca565b611f368185611ed5565b9350611f46818560208601611ee6565b611f4f81611f10565b840191505092915050565b600060a082019050611f6f6000830188611e72565b611f7c6020830187611e81565b611f896040830186611ea0565b611f966060830185611ebb565b8181036080830152611fa88184611f21565b90509695505050505050565b60008060408385031215611fcb57611fca611d7a565b5b6000611fd985828601611da5565b9250506020611fea85828601611e30565b9150509250929050565b6000806040838503121561200b5761200a611d7a565b5b600061201985828601611e30565b925050602061202a85828601611da5565b9150509250929050565b600060a0820190506120496000830188611e72565b6120566020830187611e81565b6120636040830186611e81565b6120706060830185611e81565b61207d6080830184611ebb565b9695505050505050565b6000819050919050565b60006120ac6120a76120a284611de7565b612087565b611de7565b9050919050565b60006120be82612091565b9050919050565b60006120d0826120b3565b9050919050565b6120e0816120c5565b82525050565b60006020820190506120fb60008301846120d7565b92915050565b60006020820190506121166000830184611e72565b92915050565b60006020820190506121316000830184611e81565b92915050565b600060808201905061214c6000830187611e72565b6121596020830186611e81565b6121666040830185611ebb565b81810360608301526121788184611f21565b905095945050505050565b600080fd5b600080fd5b600080fd5b60008083601f8401126121a8576121a7612183565b5b8235905067ffffffffffffffff8111156121c5576121c4612188565b5b6020830191508360018202830111156121e1576121e061218d565b5b9250929050565b60008060006040848603121561220157612200611d7a565b5b600061220f86828701611da5565b935050602084013567ffffffffffffffff8111156122305761222f611d7f565b5b61223c86828701612192565b92509250509250925092565b600060208201905061225d6000830184611ebb565b92915050565b61226c81611e90565b811461227757600080fd5b50565b60008135905061228981612263565b92915050565b600080600080606085870312156122a9576122a8611d7a565b5b60006122b787828801611da5565b94505060206122c88782880161227a565b935050604085013567ffffffffffffffff8111156122e9576122e8611d7f565b5b6122f587828801612192565b925092505092959194509250565b7f537562736372697074696f6e20706c616e20696e616374697665206f7220646f60008201527f6573206e6f742065786973740000000000000000000000000000000000000000602082015250565b600061235f602c83611ed5565b915061236a82612303565b604082019050919050565b6000602082019050818103600083015261238e81612352565b9050919050565b7f4e487b7100000000000000000000000000000000000000000000000000000000600052601160045260246000fd5b60006123cf82611d84565b91507fffffffffffffffffffffffffffffffffffffffffffffffffffffffffffffffff820361240157612400612395565b5b600182019050919050565b60006060820190506124216000830186611e72565b61242e6020830185611e72565b61243b6040830184611e81565b949350505050565b61244c81611eaf565b811461245757600080fd5b50565b60008151905061246981612443565b92915050565b60006020828403121561248557612484611d7a565b5b60006124938482850161245a565b91505092915050565b7f496e697469616c207061796d656e74206661696c656400000000000000000000600082015250565b60006124d2601683611ed5565b91506124dd8261249c565b602082019050919050565b60006020820190508181036000830152612501816124c5565b9050919050565b7f4e6f7420746865206d65726368616e7400000000000000000000000000000000600082015250565b600061253e601083611ed5565b915061254982612508565b602082019050919050565b6000602082019050818103600083015261256d81612531565b9050919050565b7f5061796d656e74206c696e6b20616c726561647920696e616374697665000000600082015250565b60006125aa601d83611ed5565b91506125b582612574565b602082019050919050565b600060208201905081810360008301526125d98161259d565b9050919050565b7f4d65726368616e74206e6f7420617574686f72697a6564000000000000000000600082015250565b6000612616601783611ed5565b9150612621826125e0565b602082019050919050565b6000602082019050818103600083015261264581612609565b9050919050565b7f537562736372697074696f6e20696e616374697665206f7220646f6573206e6f60008201527f7420657869737400000000000000000000000000000000000000000000000000602082015250565b60006126a8602783611ed5565b91506126b38261264c565b604082019050919050565b600060208201905081810360008301526126d78161269b565b9050919050565b7f4e6f7420617574686f72697a6564000000000000000000000000000000000000600082015250565b6000612714600e83611ed5565b915061271f826126de565b602082019050919050565b6000602082019050818103600083015261274381612707565b9050919050565b7f4e487b7100000000000000000000000000000000000000000000000000000000600052602260045260246000fd5b6000600282049050600182168061279157607f821691505b6020821081036127a4576127a361274a565b5b50919050565b7f506c616e20696e61637469766500000000000000000000000000000000000000600082015250565b60006127e0600d83611ed5565b91506127eb826127aa565b602082019050919050565b6000602082019050818103600083015261280f816127d3565b9050919050565b600061282182611d84565b915061282c83611d84565b925082820190508082111561284457612843612395565b5b92915050565b7f5061796d656e74206e6f74206475652079657400000000000000000000000000600082015250565b6000612880601383611ed5565b915061288b8261284a565b602082019050919050565b600060208201905081810360008301526128af81612873565b9050919050565b7f546f6b656e207472616e73666572206661696c65640000000000000000000000600082015250565b60006128ec601583611ed5565b91506128f7826128b6565b602082019050919050565b6000602082019050818103600083015261291b816128df565b9050919050565b7f5061796d656e74206c696e6b20696e616374697665206f7220646f6573206e6f60008201527f7420657869737400000000000000000000000000000000000000000000000000602082015250565b600061297e602783611ed5565b915061298982612922565b604082019050919050565b600060208201905081810360008301526129ad81612971565b9050919050565b7f506c616e20616c726561647920696e6163746976650000000000000000000000600082015250565b60006129ea601583611ed5565b91506129f5826129b4565b602082019050919050565b60006020820190508181036000830152612a19816129dd565b9050919050565b7f496e76616c6964206d65726368616e7420616464726573730000000000000000600082015250565b6000612a56601883611ed5565b9150612a6182612a20565b602082019050919050565b60006020820190508181036000830152612a8581612a49565b9050919050565b7f4d65726368616e7420616c726561647920617574686f72697a65640000000000600082015250565b6000612ac2601b83611ed5565b9150612acd82612a8c565b602082019050919050565b60006020820190508181036000830152612af181612ab5565b9050919050565b7f4e6f7420616e20617574686f72697a6564206d65726368616e74000000000000600082015250565b6000612b2e601a83611ed5565b9150612b3982612af8565b602082019050919050565b60006020820190508181036000830152612b5d81612b21565b9050919050565b7f416d6f756e74206d7573742062652067726561746572207468616e2030000000600082015250565b6000612b9a601d83611ed5565b9150612ba582612b64565b602082019050919050565b60006020820190508181036000830152612bc981612b8d565b9050919050565b7f4e487b7100000000000000000000000000000000000000000000000000000000600052604160045260246000fd5b60008190508160005260206000209050919050565b60006020601f8301049050919050565b600082821b905092915050565b600060088302612c617fffffffffffffffffffffffffffffffffffffffffffffffffffffffffffffffff82612c24565b612c6b8683612c24565b95508019841693508086168417925050509392505050565b6000612c9e612c99612c9484611d84565b612087565b611d84565b9050919050565b6000819050919050565b612cb883612c83565b612ccc612cc482612ca5565b848454612c31565b825550505050565b600090565b612ce1612cd4565b612cec818484612caf565b505050565b5b81811015612d1057612d05600082612cd9565b600181019050612cf2565b5050565b601f821115612d5557612d2681612bff565b612d2f84612c14565b81016020851015612d3e578190505b612d52612d4a85612c14565b830182612cf1565b50505b505050565b600082821c905092915050565b6000612d7860001984600802612d5a565b1980831691505092915050565b6000612d918383612d67565b9150826002028217905092915050565b612daa82611eca565b67ffffffffffffffff811115612dc357612dc2612bd0565b5b612dcd8254612779565b612dd8828285612d14565b600060209050601f831160018114612e0b5760008415612df9578287015190505b612e038582612d85565b865550612e6b565b601f198416612e1986612bff565b60005b82811015612e4157848901518255600182019150602085019450602081019050612e1c565b86831015612e5e5784890151612e5a601f891682612d67565b8355505b6001600288020188555050505b505050505050565b82818337600083830152505050565b6000612e8e8385611ed5565b9350612e9b838584612e73565b612ea483611f10565b840190509392505050565b6000604082019050612ec46000830186611e81565b8181036020830152612ed7818486612e82565b9050949350505050565b7f496e74657276616c206d7573742062652067726561746572207468616e203000600082015250565b6000612f17601f83611ed5565b9150612f2282612ee1565b602082019050919050565b60006020820190508181036000830152612f4681612f0a565b9050919050565b6000606082019050612f626000830187611e81565b612f6f6020830186611ea0565b8181036040830152612f82818486612e82565b90509594505050505056fea2646970667358221220c489d46c9f4034dfb0add79f561989e9e3eafd27852f612a21cd98344661ea8364736f6c634300081c0033",
  "linkReferences": {},
  "deployedLinkReferences": {}
}